:1000000000308A00EB280000FF00030E8301A100EE
:100010000A08A0008A010408A2007708A300780853
:10002000A4007908A5007A08A6007B08A70083131E
:1000300083128C308400801E1F288C1A32282208DC
:1000400084002308F7002408F8002508F900260892
:10005000FA002708FB0020088A00210E8300FF0E0B
:100060007F0E09008A110A1235288C1E35281A08BD
:10007000A80029148C128A110A121F282F3084001C
:1000800083130008031952280130F800F701F70B19
:100090004728F80B46284A30F700F70B4D28502820
:1000A000800B44280034AE01881108112D08AE00E1
:1000B00088130813881208122D10AD102D11AD11E0
:1000C0002D08880708150230AF003E20081188135C
:1000D000081388120812AE0E2E10AE102E11AE119B
:1000E0002E08880708150230AF003E2008110034A2
:1000F0008811081188130813881208122030880705
:1001000008150230AF003E2008112830AD00532002
:100110000C30AD0053201430AD0053208A110A1268
:1001200067290230AD0053208A110A126829013074
:10013000AD0053208A110A1269292A08103C0318BD
:10014000A4281030AA00A928AA08031DA928013054
:10015000AA0080302A07FF3EAC00AD0053200034D7
:10016000AB01881508112A08AB0088130813881200
:1001700008122A10AA102A11AA112A08880708159D
:100180000230AF003E2008118813081388120812AD
:10019000AB0E2B10AB102B11AB112B0888070815D9
:1001A0000230AF003E200811881100342A08103CAC
:1001B0000318DD281030AA00E228AA08031DE2284F
:1001C0000130AA00C0302A07FF3EAC00AD0053202A
:1001D0008A110A128D2903081F3983005730F7004E
:1001E0002030840083138001840AF70BF328F80180
:1001F000F901FA01FB01FC01FD01FE015030F7009D
:10020000A030840083138001840AF70B0329603037
:10021000F7001030840083178001840AF70B0C2943
:1002200083136030F7009030840083178001840AC4
:10023000F70B16298313A001840183131F30830554
:10024000193083169900A6309800903083129800D8
:1002500083161F149F141F159F1107309C008312D3
:10026000A801291083161F149F141F159F118312B4
:100270001F1083160912831294120130940000306B
:10028000831694000108C739083881008312900151
:100290000030F800920000308316920007309C0076
:1002A00005080330F700F70B53291C0883120D13C0
:1002B00083169D01C03083128B0483168C16FC308C
:1002C00087000330880083128701880178289128ED
:1002D00097280130AA009D204330AA00B020413069
:1002E000AA00B0205230AA00B0204130AA00B020AD
:1002F0004330AA00B0205430AA00B0204530AA00F4
:10030000B0205230AA00B0203A30AA00B0202030ED
:10031000AA00B0200230AA00D6284D30AA00B02092
:100320005330AA00B0205330AA00B0202030AA00D9
:10033000B0204530AA00B0204C30AA00B020453093
:10034000AA00B0205430AA00B0205230AA00B02039
:100350004F30AA00B0204E30AA00B0204930AA0089
:10036000B0204330AA00B0204130AA00B020291CA0
:10037000CF29291031302802FC3E0318C929043E38
:10038000D1290714C9290710C9298714C929871039
:10039000C9290B30AA009D202808AA00B020B7293F
:1003A00063000A148A100A118207C129C329C529CA
:0203B000C7295B
:02400E00393F38
:00000001FF
;PIC16F877A
